{
	"data": {
		"bytecode": {
			"linkReferences": {},
			"object": "608060405260055f553480156012575f80fd5b5061050b806100205f395ff3fe60806040526004361061003e575f3560e01c80630fcb5984146100425780632578b86a1461006c57806352170c7814610096578063b60d4288146100c0575b5f80fd5b34801561004d575f80fd5b506100566100ca565b604051610063919061025f565b60405180910390f35b348015610077575f80fd5b5061008061016f565b60405161008d919061025f565b60405180910390f35b3480156100a1575f80fd5b506100aa610174565b6040516100b7919061025f565b60405180910390f35b6100c86101fb565b005b5f8073694aa1769357215de4fac081bf1f309adc32530690505f8173ffffffffffffffffffffffffffffffffffffffff1663feaf968c6040518163ffffffff1660e01b815260040160a060405180830381865afa15801561012d573d5f803e3d5ffd5b505050506040513d601f19601f820116820180604052508101906101519190610318565b5050509150506402540be4008161016891906103bc565b9250505090565b5f5481565b5f73694aa1769357215de4fac081bf1f309adc32530673ffffffffffffffffffffffffffffffffffffffff166354fd4d506040518163ffffffff1660e01b8152600401602060405180830381865afa1580156101d2573d5f803e3d5ffd5b505050506040513d601f19601f820116820180604052508101906101f69190610432565b905090565b670de0b6b3a76400003411610245576040517f08c379a000000000000000000000000000000000000000000000000000000000815260040161023c906104b7565b60405180910390fd5b565b5f819050919050565b61025981610247565b82525050565b5f6020820190506102725f830184610250565b92915050565b5f80fd5b5f69ffffffffffffffffffff82169050919050565b61029a8161027c565b81146102a4575f80fd5b50565b5f815190506102b581610291565b92915050565b5f819050919050565b6102cd816102bb565b81146102d7575f80fd5b50565b5f815190506102e8816102c4565b92915050565b6102f781610247565b8114610301575f80fd5b50565b5f81519050610312816102ee565b92915050565b5f805f805f60a0868803121561033157610330610278565b5b5f61033e888289016102a7565b955050602061034f888289016102da565b945050604061036088828901610304565b935050606061037188828901610304565b9250506080610382888289016102a7565b9150509295509295909350565b7f4e487b71000000000000000000000000000000000000000000000000000000005f52601160045260245ffd5b5f6103c6826102bb565b91506103d1836102bb565b92508282026103df816102bb565b91507f800000000000000000000000000000000000000000000000000000000000000084145f841216156104165761041561038f565b5b828205841483151761042b5761042a61038f565b5b5092915050565b5f6020828403121561044757610446610278565b5b5f61045484828501610304565b91505092915050565b5f82825260208201905092915050565b7f4469646e27742073656e6420656e6f7567682e000000000000000000000000005f82015250565b5f6104a160138361045d565b91506104ac8261046d565b602082019050919050565b5f6020820190508181035f8301526104ce81610495565b905091905056fea26469706673582212204e0cfa675a398bc18a8dbcbb60c0b9def910cdcc6f25ea18f72cdc62857d49ce64736f6c634300081a0033",
			"opcodes": "PUSH1 0x80 PUSH1 0x40 MSTORE PUSH1 0x5 PUSH0 SSTORE CALLVALUE DUP1 ISZERO PUSH1 0x12 JUMPI PUSH0 DUP1 REVERT JUMPDEST POP PUSH2 0x50B DUP1 PUSH2 0x20 PUSH0 CODECOPY PUSH0 RETURN INVALID PUSH1 0x80 PUSH1 0x40 MSTORE PUSH1 0x4 CALLDATASIZE LT PUSH2 0x3E JUMPI PUSH0 CALLDATALOAD PUSH1 0xE0 SHR DUP1 PUSH4 0xFCB5984 EQ PUSH2 0x42 JUMPI DUP1 PUSH4 0x2578B86A EQ PUSH2 0x6C JUMPI DUP1 PUSH4 0x52170C78 EQ PUSH2 0x96 JUMPI DUP1 PUSH4 0xB60D4288 EQ PUSH2 0xC0 JUMPI JUMPDEST PUSH0 DUP1 REVERT JUMPDEST CALLVALUE DUP1 ISZERO PUSH2 0x4D JUMPI PUSH0 DUP1 REVERT JUMPDEST POP PUSH2 0x56 PUSH2 0xCA JUMP JUMPDEST PUSH1 0x40 MLOAD PUSH2 0x63 SWAP2 SWAP1 PUSH2 0x25F JUMP JUMPDEST PUSH1 0x40 MLOAD DUP1 SWAP2 SUB SWAP1 RETURN JUMPDEST CALLVALUE DUP1 ISZERO PUSH2 0x77 JUMPI PUSH0 DUP1 REVERT JUMPDEST POP PUSH2 0x80 PUSH2 0x16F JUMP JUMPDEST PUSH1 0x40 MLOAD PUSH2 0x8D SWAP2 SWAP1 PUSH2 0x25F JUMP JUMPDEST PUSH1 0x40 MLOAD DUP1 SWAP2 SUB SWAP1 RETURN JUMPDEST CALLVALUE DUP1 ISZERO PUSH2 0xA1 JUMPI PUSH0 DUP1 REVERT JUMPDEST POP PUSH2 0xAA PUSH2 0x174 JUMP JUMPDEST PUSH1 0x40 MLOAD PUSH2 0xB7 SWAP2 SWAP1 PUSH2 0x25F JUMP JUMPDEST PUSH1 0x40 MLOAD DUP1 SWAP2 SUB SWAP1 RETURN JUMPDEST PUSH2 0xC8 PUSH2 0x1FB JUMP JUMPDEST STOP JUMPDEST PUSH0 DUP1 PUSH20 0x694AA1769357215DE4FAC081BF1F309ADC325306 SWAP1 POP PUSH0 DUP2 PUSH20 0xFFFFFFFFFFFFFFFFFFFFFFFFFFFFFFFFFFFFFFFF AND PUSH4 0xFEAF968C PUSH1 0x40 MLOAD DUP2 PUSH4 0xFFFFFFFF AND PUSH1 0xE0 SHL DUP2 MSTORE PUSH1 0x4 ADD PUSH1 0xA0 PUSH1 0x40 MLOAD DUP1 DUP4 SUB DUP2 DUP7 GAS STATICCALL ISZERO DUP1 ISZERO PUSH2 0x12D JUMPI RETURNDATASIZE PUSH0 DUP1 RETURNDATACOPY RETURNDATASIZE PUSH0 REVERT JUMPDEST POP POP POP POP PUSH1 0x40 MLOAD RETURNDATASIZE PUSH1 0x1F NOT PUSH1 0x1F DUP3 ADD AND DUP3 ADD DUP1 PUSH1 0x40 MSTORE POP DUP2 ADD SWAP1 PUSH2 0x151 SWAP2 SWAP1 PUSH2 0x318 JUMP JUMPDEST POP POP POP SWAP2 POP POP PUSH5 0x2540BE400 DUP2 PUSH2 0x168 SWAP2 SWAP1 PUSH2 0x3BC JUMP JUMPDEST SWAP3 POP POP POP SWAP1 JUMP JUMPDEST PUSH0 SLOAD DUP2 JUMP JUMPDEST PUSH0 PUSH20 0x694AA1769357215DE4FAC081BF1F309ADC325306 PUSH20 0xFFFFFFFFFFFFFFFFFFFFFFFFFFFFFFFFFFFFFFFF AND PUSH4 0x54FD4D50 PUSH1 0x40 MLOAD DUP2 PUSH4 0xFFFFFFFF AND PUSH1 0xE0 SHL DUP2 MSTORE PUSH1 0x4 ADD PUSH1 0x20 PUSH1 0x40 MLOAD DUP1 DUP4 SUB DUP2 DUP7 GAS STATICCALL ISZERO DUP1 ISZERO PUSH2 0x1D2 JUMPI RETURNDATASIZE PUSH0 DUP1 RETURNDATACOPY RETURNDATASIZE PUSH0 REVERT JUMPDEST POP POP POP POP PUSH1 0x40 MLOAD RETURNDATASIZE PUSH1 0x1F NOT PUSH1 0x1F DUP3 ADD AND DUP3 ADD DUP1 PUSH1 0x40 MSTORE POP DUP2 ADD SWAP1 PUSH2 0x1F6 SWAP2 SWAP1 PUSH2 0x432 JUMP JUMPDEST SWAP1 POP SWAP1 JUMP JUMPDEST PUSH8 0xDE0B6B3A7640000 CALLVALUE GT PUSH2 0x245 JUMPI PUSH1 0x40 MLOAD PUSH32 0x8C379A000000000000000000000000000000000000000000000000000000000 DUP2 MSTORE PUSH1 0x4 ADD PUSH2 0x23C SWAP1 PUSH2 0x4B7 JUMP JUMPDEST PUSH1 0x40 MLOAD DUP1 SWAP2 SUB SWAP1 REVERT JUMPDEST JUMP JUMPDEST PUSH0 DUP2 SWAP1 POP SWAP2 SWAP1 POP JUMP JUMPDEST PUSH2 0x259 DUP2 PUSH2 0x247 JUMP JUMPDEST DUP3 MSTORE POP POP JUMP JUMPDEST PUSH0 PUSH1 0x20 DUP3 ADD SWAP1 POP PUSH2 0x272 PUSH0 DUP4 ADD DUP5 PUSH2 0x250 JUMP JUMPDEST SWAP3 SWAP2 POP POP JUMP JUMPDEST PUSH0 DUP1 REVERT JUMPDEST PUSH0 PUSH10 0xFFFFFFFFFFFFFFFFFFFF DUP3 AND SWAP1 POP SWAP2 SWAP1 POP JUMP JUMPDEST PUSH2 0x29A DUP2 PUSH2 0x27C JUMP JUMPDEST DUP2 EQ PUSH2 0x2A4 JUMPI PUSH0 DUP1 REVERT JUMPDEST POP JUMP JUMPDEST PUSH0 DUP2 MLOAD SWAP1 POP PUSH2 0x2B5 DUP2 PUSH2 0x291 JUMP JUMPDEST SWAP3 SWAP2 POP POP JUMP JUMPDEST PUSH0 DUP2 SWAP1 POP SWAP2 SWAP1 POP JUMP JUMPDEST PUSH2 0x2CD DUP2 PUSH2 0x2BB JUMP JUMPDEST DUP2 EQ PUSH2 0x2D7 JUMPI PUSH0 DUP1 REVERT JUMPDEST POP JUMP JUMPDEST PUSH0 DUP2 MLOAD SWAP1 POP PUSH2 0x2E8 DUP2 PUSH2 0x2C4 JUMP JUMPDEST SWAP3 SWAP2 POP POP JUMP JUMPDEST PUSH2 0x2F7 DUP2 PUSH2 0x247 JUMP JUMPDEST DUP2 EQ PUSH2 0x301 JUMPI PUSH0 DUP1 REVERT JUMPDEST POP JUMP JUMPDEST PUSH0 DUP2 MLOAD SWAP1 POP PUSH2 0x312 DUP2 PUSH2 0x2EE JUMP JUMPDEST SWAP3 SWAP2 POP POP JUMP JUMPDEST PUSH0 DUP1 PUSH0 DUP1 PUSH0 PUSH1 0xA0 DUP7 DUP9 SUB SLT ISZERO PUSH2 0x331 JUMPI PUSH2 0x330 PUSH2 0x278 JUMP JUMPDEST JUMPDEST PUSH0 PUSH2 0x33E DUP9 DUP3 DUP10 ADD PUSH2 0x2A7 JUMP JUMPDEST SWAP6 POP POP PUSH1 0x20 PUSH2 0x34F DUP9 DUP3 DUP10 ADD PUSH2 0x2DA JUMP JUMPDEST SWAP5 POP POP PUSH1 0x40 PUSH2 0x360 DUP9 DUP3 DUP10 ADD PUSH2 0x304 JUMP JUMPDEST SWAP4 POP POP PUSH1 0x60 PUSH2 0x371 DUP9 DUP3 DUP10 ADD PUSH2 0x304 JUMP JUMPDEST SWAP3 POP POP PUSH1 0x80 PUSH2 0x382 DUP9 DUP3 DUP10 ADD PUSH2 0x2A7 JUMP JUMPDEST SWAP2 POP POP SWAP3 SWAP6 POP SWAP3 SWAP6 SWAP1 SWAP4 POP JUMP JUMPDEST PUSH32 0x4E487B7100000000000000000000000000000000000000000000000000000000 PUSH0 MSTORE PUSH1 0x11 PUSH1 0x4 MSTORE PUSH1 0x24 PUSH0 REVERT JUMPDEST PUSH0 PUSH2 0x3C6 DUP3 PUSH2 0x2BB JUMP JUMPDEST SWAP2 POP PUSH2 0x3D1 DUP4 PUSH2 0x2BB JUMP JUMPDEST SWAP3 POP DUP3 DUP3 MUL PUSH2 0x3DF DUP2 PUSH2 0x2BB JUMP JUMPDEST SWAP2 POP PUSH32 0x8000000000000000000000000000000000000000000000000000000000000000 DUP5 EQ PUSH0 DUP5 SLT AND ISZERO PUSH2 0x416 JUMPI PUSH2 0x415 PUSH2 0x38F JUMP JUMPDEST JUMPDEST DUP3 DUP3 SDIV DUP5 EQ DUP4 ISZERO OR PUSH2 0x42B JUMPI PUSH2 0x42A PUSH2 0x38F JUMP JUMPDEST JUMPDEST POP SWAP3 SWAP2 POP POP JUMP JUMPDEST PUSH0 PUSH1 0x20 DUP3 DUP5 SUB SLT ISZERO PUSH2 0x447 JUMPI PUSH2 0x446 PUSH2 0x278 JUMP JUMPDEST JUMPDEST PUSH0 PUSH2 0x454 DUP5 DUP3 DUP6 ADD PUSH2 0x304 JUMP JUMPDEST SWAP2 POP POP SWAP3 SWAP2 POP POP JUMP JUMPDEST PUSH0 DUP3 DUP3 MSTORE PUSH1 0x20 DUP3 ADD SWAP1 POP SWAP3 SWAP2 POP POP JUMP JUMPDEST PUSH32 0x4469646E27742073656E6420656E6F7567682E00000000000000000000000000 PUSH0 DUP3 ADD MSTORE POP JUMP JUMPDEST PUSH0 PUSH2 0x4A1 PUSH1 0x13 DUP4 PUSH2 0x45D JUMP JUMPDEST SWAP2 POP PUSH2 0x4AC DUP3 PUSH2 0x46D JUMP JUMPDEST PUSH1 0x20 DUP3 ADD SWAP1 POP SWAP2 SWAP1 POP JUMP JUMPDEST PUSH0 PUSH1 0x20 DUP3 ADD SWAP1 POP DUP2 DUP2 SUB PUSH0 DUP4 ADD MSTORE PUSH2 0x4CE DUP2 PUSH2 0x495 JUMP JUMPDEST SWAP1 POP SWAP2 SWAP1 POP JUMP INVALID LOG2 PUSH5 0x6970667358 0x22 SLT KECCAK256 0x4E 0xC STATICCALL PUSH8 0x5A398BC18A8DBCBB PUSH1 0xC0 0xB9 0xDE 0xF9 LT 0xCD 0xCC PUSH16 0x25EA18F72CDC62857D49CE64736F6C63 NUMBER STOP ADDMOD BYTE STOP CALLER "
		},
		"gasEstimates": {
			"creation": {
				"codeDepositCost": "258200",
				"executionCost": "22403",
				"totalCost": "280603"
			},
			"external": {
				"fund()": "469",
				"getprice()": "infinite",
				"getversion()": "infinite",
				"minusd()": "2424"
			}
		},
		"methodIdentifiers": {
			"fund()": "b60d4288",
			"getprice()": "0fcb5984",
			"getversion()": "52170c78",
			"minusd()": "2578b86a"
		}
	},
	"abi": [
		{
			"inputs": [],
			"name": "fund",
			"outputs": [],
			"stateMutability": "payable",
			"type": "function"
		},
		{
			"inputs": [],
			"name": "getprice",
			"outputs": [
				{
					"internalType": "uint256",
					"name": "",
					"type": "uint256"
				}
			],
			"stateMutability": "view",
			"type": "function"
		},
		{
			"inputs": [],
			"name": "getversion",
			"outputs": [
				{
					"internalType": "uint256",
					"name": "",
					"type": "uint256"
				}
			],
			"stateMutability": "view",
			"type": "function"
		},
		{
			"inputs": [],
			"name": "minusd",
			"outputs": [
				{
					"internalType": "uint256",
					"name": "",
					"type": "uint256"
				}
			],
			"stateMutability": "view",
			"type": "function"
		}
	]
}