{
	"data": {
		"bytecode": {
			"linkReferences": {},
			"object": "6080604052348015600e575f80fd5b50610ab38061001c5f395ff3fe608060405234801561000f575f80fd5b5060043610610034575f3560e01c80630f7cfbaa146100385780632ae6e58714610042575b5f80fd5b610040610060565b005b61004a6100c6565b6040516100579190610170565b60405180910390f35b60405161006c906100e9565b604051809103905ff080158015610085573d5f803e3d5ffd5b505f806101000a81548173ffffffffffffffffffffffffffffffffffffffff021916908373ffffffffffffffffffffffffffffffffffffffff160217905550565b5f8054906101000a900473ffffffffffffffffffffffffffffffffffffffff1681565b6108f48061018a83390190565b5f73ffffffffffffffffffffffffffffffffffffffff82169050919050565b5f819050919050565b5f61013861013361012e846100f6565b610115565b6100f6565b9050919050565b5f6101498261011e565b9050919050565b5f61015a8261013f565b9050919050565b61016a81610150565b82525050565b5f6020820190506101835f830184610161565b9291505056fe6080604052348015600e575f80fd5b506108d88061001c5f395ff3fe608060405234801561000f575f80fd5b5060043610610055575f3560e01c80630f38e2b3146100595780632a2272621461008a5780636057361d146100a65780637972a674146100c2578063a6b7fc5b146100f2575b5f80fd5b610073600480360381019061006e91906102cb565b610110565b604051610081929190610375565b60405180910390f35b6100a4600480360381019061009f91906104cf565b6101c5565b005b6100c060048036038101906100bb91906102cb565b610249565b005b6100dc60048036038101906100d79190610529565b610252565b6040516100e99190610570565b60405180910390f35b6100fa61027f565b6040516101079190610570565b60405180910390f35b6002818154811061011f575f80fd5b905f5260205f2090600202015f91509050805f015490806001018054610144906105b6565b80601f0160208091040260200160405190810160405280929190818152602001828054610170906105b6565b80156101bb5780601f10610192576101008083540402835291602001916101bb565b820191905f5260205f20905b81548152906001019060200180831161019e57829003601f168201915b5050505050905082565b6002604051806040016040528083815260200184815250908060018154018082558091505060019003905f5260205f2090600202015f909190919091505f820151815f0155602082015181600101908161021f9190610783565b50505080600183604051610233919061088c565b9081526020016040518091039020819055505050565b805f8190555050565b6001818051602081018201805184825260208301602085012081835280955050505050505f915090505481565b5f8054905090565b5f604051905090565b5f80fd5b5f80fd5b5f819050919050565b6102aa81610298565b81146102b4575f80fd5b50565b5f813590506102c5816102a1565b92915050565b5f602082840312156102e0576102df610290565b5b5f6102ed848285016102b7565b91505092915050565b6102ff81610298565b82525050565b5f81519050919050565b5f82825260208201905092915050565b8281835e5f83830152505050565b5f601f19601f8301169050919050565b5f61034782610305565b610351818561030f565b935061036181856020860161031f565b61036a8161032d565b840191505092915050565b5f6040820190506103885f8301856102f6565b818103602083015261039a818461033d565b90509392505050565b5f80fd5b5f80fd5b7f4e487b71000000000000000000000000000000000000000000000000000000005f52604160045260245ffd5b6103e18261032d565b810181811067ffffffffffffffff82111715610400576103ff6103ab565b5b80604052505050565b5f610412610287565b905061041e82826103d8565b919050565b5f67ffffffffffffffff82111561043d5761043c6103ab565b5b6104468261032d565b9050602081019050919050565b828183375f83830152505050565b5f61047361046e84610423565b610409565b90508281526020810184848401111561048f5761048e6103a7565b5b61049a848285610453565b509392505050565b5f82601f8301126104b6576104b56103a3565b5b81356104c6848260208601610461565b91505092915050565b5f80604083850312156104e5576104e4610290565b5b5f83013567ffffffffffffffff81111561050257610501610294565b5b61050e858286016104a2565b925050602061051f858286016102b7565b9150509250929050565b5f6020828403121561053e5761053d610290565b5b5f82013567ffffffffffffffff81111561055b5761055a610294565b5b610567848285016104a2565b91505092915050565b5f6020820190506105835f8301846102f6565b92915050565b7f4e487b71000000000000000000000000000000000000000000000000000000005f52602260045260245ffd5b5f60028204905060018216806105cd57607f821691505b6020821081036105e0576105df610589565b5b50919050565b5f819050815f5260205f209050919050565b5f6020601f8301049050919050565b5f82821b905092915050565b5f600883026106427fffffffffffffffffffffffffffffffffffffffffffffffffffffffffffffffff82610607565b61064c8683610607565b95508019841693508086168417925050509392505050565b5f819050919050565b5f61068761068261067d84610298565b610664565b610298565b9050919050565b5f819050919050565b6106a08361066d565b6106b46106ac8261068e565b848454610613565b825550505050565b5f90565b6106c86106bc565b6106d3818484610697565b505050565b5b818110156106f6576106eb5f826106c0565b6001810190506106d9565b5050565b601f82111561073b5761070c816105e6565b610715846105f8565b81016020851015610724578190505b610738610730856105f8565b8301826106d8565b50505b505050565b5f82821c905092915050565b5f61075b5f1984600802610740565b1980831691505092915050565b5f610773838361074c565b9150826002028217905092915050565b61078c82610305565b67ffffffffffffffff8111156107a5576107a46103ab565b5b6107af82546105b6565b6107ba8282856106fa565b5f60209050601f8311600181146107eb575f84156107d9578287015190505b6107e38582610768565b86555061084a565b601f1984166107f9866105e6565b5f5b82811015610820578489015182556001820191506020850194506020810190506107fb565b8683101561083d5784890151610839601f89168261074c565b8355505b6001600288020188555050505b505050505050565b5f81905092915050565b5f61086682610305565b6108708185610852565b935061088081856020860161031f565b80840191505092915050565b5f610897828461085c565b91508190509291505056fea2646970667358221220bb6384fad1110026c82c90ab204330127fa6a86b9cd939eae27b9c619a34d26b64736f6c634300081a0033a26469706673582212202fadbc8a99a4b17f133c81d26bb78f8cd0b9746814274a99b2351aaf9b5dab0664736f6c634300081a0033",
			"opcodes": "PUSH1 0x80 PUSH1 0x40 MSTORE CALLVALUE DUP1 ISZERO PUSH1 0xE JUMPI PUSH0 DUP1 REVERT JUMPDEST POP PUSH2 0xAB3 DUP1 PUSH2 0x1C PUSH0 CODECOPY PUSH0 RETURN INVALID PUSH1 0x80 PUSH1 0x40 MSTORE CALLVALUE DUP1 ISZERO PUSH2 0xF JUMPI PUSH0 DUP1 REVERT JUMPDEST POP PUSH1 0x4 CALLDATASIZE LT PUSH2 0x34 JUMPI PUSH0 CALLDATALOAD PUSH1 0xE0 SHR DUP1 PUSH4 0xF7CFBAA EQ PUSH2 0x38 JUMPI DUP1 PUSH4 0x2AE6E587 EQ PUSH2 0x42 JUMPI JUMPDEST PUSH0 DUP1 REVERT JUMPDEST PUSH2 0x40 PUSH2 0x60 JUMP JUMPDEST STOP JUMPDEST PUSH2 0x4A PUSH2 0xC6 JUMP JUMPDEST PUSH1 0x40 MLOAD PUSH2 0x57 SWAP2 SWAP1 PUSH2 0x170 JUMP JUMPDEST PUSH1 0x40 MLOAD DUP1 SWAP2 SUB SWAP1 RETURN JUMPDEST PUSH1 0x40 MLOAD PUSH2 0x6C SWAP1 PUSH2 0xE9 JUMP JUMPDEST PUSH1 0x40 MLOAD DUP1 SWAP2 SUB SWAP1 PUSH0 CREATE DUP1 ISZERO DUP1 ISZERO PUSH2 0x85 JUMPI RETURNDATASIZE PUSH0 DUP1 RETURNDATACOPY RETURNDATASIZE PUSH0 REVERT JUMPDEST POP PUSH0 DUP1 PUSH2 0x100 EXP DUP2 SLOAD DUP2 PUSH20 0xFFFFFFFFFFFFFFFFFFFFFFFFFFFFFFFFFFFFFFFF MUL NOT AND SWAP1 DUP4 PUSH20 0xFFFFFFFFFFFFFFFFFFFFFFFFFFFFFFFFFFFFFFFF AND MUL OR SWAP1 SSTORE POP JUMP JUMPDEST PUSH0 DUP1 SLOAD SWAP1 PUSH2 0x100 EXP SWAP1 DIV PUSH20 0xFFFFFFFFFFFFFFFFFFFFFFFFFFFFFFFFFFFFFFFF AND DUP2 JUMP JUMPDEST PUSH2 0x8F4 DUP1 PUSH2 0x18A DUP4 CODECOPY ADD SWAP1 JUMP JUMPDEST PUSH0 PUSH20 0xFFFFFFFFFFFFFFFFFFFFFFFFFFFFFFFFFFFFFFFF DUP3 AND SWAP1 POP SWAP2 SWAP1 POP JUMP JUMPDEST PUSH0 DUP2 SWAP1 POP SWAP2 SWAP1 POP JUMP JUMPDEST PUSH0 PUSH2 0x138 PUSH2 0x133 PUSH2 0x12E DUP5 PUSH2 0xF6 JUMP JUMPDEST PUSH2 0x115 JUMP JUMPDEST PUSH2 0xF6 JUMP JUMPDEST SWAP1 POP SWAP2 SWAP1 POP JUMP JUMPDEST PUSH0 PUSH2 0x149 DUP3 PUSH2 0x11E JUMP JUMPDEST SWAP1 POP SWAP2 SWAP1 POP JUMP JUMPDEST PUSH0 PUSH2 0x15A DUP3 PUSH2 0x13F JUMP JUMPDEST SWAP1 POP SWAP2 SWAP1 POP JUMP JUMPDEST PUSH2 0x16A DUP2 PUSH2 0x150 JUMP JUMPDEST DUP3 MSTORE POP POP JUMP JUMPDEST PUSH0 PUSH1 0x20 DUP3 ADD SWAP1 POP PUSH2 0x183 PUSH0 DUP4 ADD DUP5 PUSH2 0x161 JUMP JUMPDEST SWAP3 SWAP2 POP POP JUMP INVALID PUSH1 0x80 PUSH1 0x40 MSTORE CALLVALUE DUP1 ISZERO PUSH1 0xE JUMPI PUSH0 DUP1 REVERT JUMPDEST POP PUSH2 0x8D8 DUP1 PUSH2 0x1C PUSH0 CODECOPY PUSH0 RETURN INVALID PUSH1 0x80 PUSH1 0x40 MSTORE CALLVALUE DUP1 ISZERO PUSH2 0xF JUMPI PUSH0 DUP1 REVERT JUMPDEST POP PUSH1 0x4 CALLDATASIZE LT PUSH2 0x55 JUMPI PUSH0 CALLDATALOAD PUSH1 0xE0 SHR DUP1 PUSH4 0xF38E2B3 EQ PUSH2 0x59 JUMPI DUP1 PUSH4 0x2A227262 EQ PUSH2 0x8A JUMPI DUP1 PUSH4 0x6057361D EQ PUSH2 0xA6 JUMPI DUP1 PUSH4 0x7972A674 EQ PUSH2 0xC2 JUMPI DUP1 PUSH4 0xA6B7FC5B EQ PUSH2 0xF2 JUMPI JUMPDEST PUSH0 DUP1 REVERT JUMPDEST PUSH2 0x73 PUSH1 0x4 DUP1 CALLDATASIZE SUB DUP2 ADD SWAP1 PUSH2 0x6E SWAP2 SWAP1 PUSH2 0x2CB JUMP JUMPDEST PUSH2 0x110 JUMP JUMPDEST PUSH1 0x40 MLOAD PUSH2 0x81 SWAP3 SWAP2 SWAP1 PUSH2 0x375 JUMP JUMPDEST PUSH1 0x40 MLOAD DUP1 SWAP2 SUB SWAP1 RETURN JUMPDEST PUSH2 0xA4 PUSH1 0x4 DUP1 CALLDATASIZE SUB DUP2 ADD SWAP1 PUSH2 0x9F SWAP2 SWAP1 PUSH2 0x4CF JUMP JUMPDEST PUSH2 0x1C5 JUMP JUMPDEST STOP JUMPDEST PUSH2 0xC0 PUSH1 0x4 DUP1 CALLDATASIZE SUB DUP2 ADD SWAP1 PUSH2 0xBB SWAP2 SWAP1 PUSH2 0x2CB JUMP JUMPDEST PUSH2 0x249 JUMP JUMPDEST STOP JUMPDEST PUSH2 0xDC PUSH1 0x4 DUP1 CALLDATASIZE SUB DUP2 ADD SWAP1 PUSH2 0xD7 SWAP2 SWAP1 PUSH2 0x529 JUMP JUMPDEST PUSH2 0x252 JUMP JUMPDEST PUSH1 0x40 MLOAD PUSH2 0xE9 SWAP2 SWAP1 PUSH2 0x570 JUMP JUMPDEST PUSH1 0x40 MLOAD DUP1 SWAP2 SUB SWAP1 RETURN JUMPDEST PUSH2 0xFA PUSH2 0x27F JUMP JUMPDEST PUSH1 0x40 MLOAD PUSH2 0x107 SWAP2 SWAP1 PUSH2 0x570 JUMP JUMPDEST PUSH1 0x40 MLOAD DUP1 SWAP2 SUB SWAP1 RETURN JUMPDEST PUSH1 0x2 DUP2 DUP2 SLOAD DUP2 LT PUSH2 0x11F JUMPI PUSH0 DUP1 REVERT JUMPDEST SWAP1 PUSH0 MSTORE PUSH1 0x20 PUSH0 KECCAK256 SWAP1 PUSH1 0x2 MUL ADD PUSH0 SWAP2 POP SWAP1 POP DUP1 PUSH0 ADD SLOAD SWAP1 DUP1 PUSH1 0x1 ADD DUP1 SLOAD PUSH2 0x144 SWAP1 PUSH2 0x5B6 JUMP JUMPDEST DUP1 PUSH1 0x1F ADD PUSH1 0x20 DUP1 SWAP2 DIV MUL PUSH1 0x20 ADD PUSH1 0x40 MLOAD SWAP1 DUP2 ADD PUSH1 0x40 MSTORE DUP1 SWAP3 SWAP2 SWAP1 DUP2 DUP2 MSTORE PUSH1 0x20 ADD DUP3 DUP1 SLOAD PUSH2 0x170 SWAP1 PUSH2 0x5B6 JUMP JUMPDEST DUP1 ISZERO PUSH2 0x1BB JUMPI DUP1 PUSH1 0x1F LT PUSH2 0x192 JUMPI PUSH2 0x100 DUP1 DUP4 SLOAD DIV MUL DUP4 MSTORE SWAP2 PUSH1 0x20 ADD SWAP2 PUSH2 0x1BB JUMP JUMPDEST DUP3 ADD SWAP2 SWAP1 PUSH0 MSTORE PUSH1 0x20 PUSH0 KECCAK256 SWAP1 JUMPDEST DUP2 SLOAD DUP2 MSTORE SWAP1 PUSH1 0x1 ADD SWAP1 PUSH1 0x20 ADD DUP1 DUP4 GT PUSH2 0x19E JUMPI DUP3 SWAP1 SUB PUSH1 0x1F AND DUP3 ADD SWAP2 JUMPDEST POP POP POP POP POP SWAP1 POP DUP3 JUMP JUMPDEST PUSH1 0x2 PUSH1 0x40 MLOAD DUP1 PUSH1 0x40 ADD PUSH1 0x40 MSTORE DUP1 DUP4 DUP2 MSTORE PUSH1 0x20 ADD DUP5 DUP2 MSTORE POP SWAP1 DUP1 PUSH1 0x1 DUP2 SLOAD ADD DUP1 DUP3 SSTORE DUP1 SWAP2 POP POP PUSH1 0x1 SWAP1 SUB SWAP1 PUSH0 MSTORE PUSH1 0x20 PUSH0 KECCAK256 SWAP1 PUSH1 0x2 MUL ADD PUSH0 SWAP1 SWAP2 SWAP1 SWAP2 SWAP1 SWAP2 POP PUSH0 DUP3 ADD MLOAD DUP2 PUSH0 ADD SSTORE PUSH1 0x20 DUP3 ADD MLOAD DUP2 PUSH1 0x1 ADD SWAP1 DUP2 PUSH2 0x21F SWAP2 SWAP1 PUSH2 0x783 JUMP JUMPDEST POP POP POP DUP1 PUSH1 0x1 DUP4 PUSH1 0x40 MLOAD PUSH2 0x233 SWAP2 SWAP1 PUSH2 0x88C JUMP JUMPDEST SWAP1 DUP2 MSTORE PUSH1 0x20 ADD PUSH1 0x40 MLOAD DUP1 SWAP2 SUB SWAP1 KECCAK256 DUP2 SWAP1 SSTORE POP POP POP JUMP JUMPDEST DUP1 PUSH0 DUP2 SWAP1 SSTORE POP POP JUMP JUMPDEST PUSH1 0x1 DUP2 DUP1 MLOAD PUSH1 0x20 DUP2 ADD DUP3 ADD DUP1 MLOAD DUP5 DUP3 MSTORE PUSH1 0x20 DUP4 ADD PUSH1 0x20 DUP6 ADD KECCAK256 DUP2 DUP4 MSTORE DUP1 SWAP6 POP POP POP POP POP POP PUSH0 SWAP2 POP SWAP1 POP SLOAD DUP2 JUMP JUMPDEST PUSH0 DUP1 SLOAD SWAP1 POP SWAP1 JUMP JUMPDEST PUSH0 PUSH1 0x40 MLOAD SWAP1 POP SWAP1 JUMP JUMPDEST PUSH0 DUP1 REVERT JUMPDEST PUSH0 DUP1 REVERT JUMPDEST PUSH0 DUP2 SWAP1 POP SWAP2 SWAP1 POP JUMP JUMPDEST PUSH2 0x2AA DUP2 PUSH2 0x298 JUMP JUMPDEST DUP2 EQ PUSH2 0x2B4 JUMPI PUSH0 DUP1 REVERT JUMPDEST POP JUMP JUMPDEST PUSH0 DUP2 CALLDATALOAD SWAP1 POP PUSH2 0x2C5 DUP2 PUSH2 0x2A1 JUMP JUMPDEST SWAP3 SWAP2 POP POP JUMP JUMPDEST PUSH0 PUSH1 0x20 DUP3 DUP5 SUB SLT ISZERO PUSH2 0x2E0 JUMPI PUSH2 0x2DF PUSH2 0x290 JUMP JUMPDEST JUMPDEST PUSH0 PUSH2 0x2ED DUP5 DUP3 DUP6 ADD PUSH2 0x2B7 JUMP JUMPDEST SWAP2 POP POP SWAP3 SWAP2 POP POP JUMP JUMPDEST PUSH2 0x2FF DUP2 PUSH2 0x298 JUMP JUMPDEST DUP3 MSTORE POP POP JUMP JUMPDEST PUSH0 DUP2 MLOAD SWAP1 POP SWAP2 SWAP1 POP JUMP JUMPDEST PUSH0 DUP3 DUP3 MSTORE PUSH1 0x20 DUP3 ADD SWAP1 POP SWAP3 SWAP2 POP POP JUMP JUMPDEST DUP3 DUP2 DUP4 MCOPY PUSH0 DUP4 DUP4 ADD MSTORE POP POP POP JUMP JUMPDEST PUSH0 PUSH1 0x1F NOT PUSH1 0x1F DUP4 ADD AND SWAP1 POP SWAP2 SWAP1 POP JUMP JUMPDEST PUSH0 PUSH2 0x347 DUP3 PUSH2 0x305 JUMP JUMPDEST PUSH2 0x351 DUP2 DUP6 PUSH2 0x30F JUMP JUMPDEST SWAP4 POP PUSH2 0x361 DUP2 DUP6 PUSH1 0x20 DUP7 ADD PUSH2 0x31F JUMP JUMPDEST PUSH2 0x36A DUP2 PUSH2 0x32D JUMP JUMPDEST DUP5 ADD SWAP2 POP POP SWAP3 SWAP2 POP POP JUMP JUMPDEST PUSH0 PUSH1 0x40 DUP3 ADD SWAP1 POP PUSH2 0x388 PUSH0 DUP4 ADD DUP6 PUSH2 0x2F6 JUMP JUMPDEST DUP2 DUP2 SUB PUSH1 0x20 DUP4 ADD MSTORE PUSH2 0x39A DUP2 DUP5 PUSH2 0x33D JUMP JUMPDEST SWAP1 POP SWAP4 SWAP3 POP POP POP JUMP JUMPDEST PUSH0 DUP1 REVERT JUMPDEST PUSH0 DUP1 REVERT JUMPDEST PUSH32 0x4E487B7100000000000000000000000000000000000000000000000000000000 PUSH0 MSTORE PUSH1 0x41 PUSH1 0x4 MSTORE PUSH1 0x24 PUSH0 REVERT JUMPDEST PUSH2 0x3E1 DUP3 PUSH2 0x32D JUMP JUMPDEST DUP2 ADD DUP2 DUP2 LT PUSH8 0xFFFFFFFFFFFFFFFF DUP3 GT OR ISZERO PUSH2 0x400 JUMPI PUSH2 0x3FF PUSH2 0x3AB JUMP JUMPDEST JUMPDEST DUP1 PUSH1 0x40 MSTORE POP POP POP JUMP JUMPDEST PUSH0 PUSH2 0x412 PUSH2 0x287 JUMP JUMPDEST SWAP1 POP PUSH2 0x41E DUP3 DUP3 PUSH2 0x3D8 JUMP JUMPDEST SWAP2 SWAP1 POP JUMP JUMPDEST PUSH0 PUSH8 0xFFFFFFFFFFFFFFFF DUP3 GT ISZERO PUSH2 0x43D JUMPI PUSH2 0x43C PUSH2 0x3AB JUMP JUMPDEST JUMPDEST PUSH2 0x446 DUP3 PUSH2 0x32D JUMP JUMPDEST SWAP1 POP PUSH1 0x20 DUP2 ADD SWAP1 POP SWAP2 SWAP1 POP JUMP JUMPDEST DUP3 DUP2 DUP4 CALLDATACOPY PUSH0 DUP4 DUP4 ADD MSTORE POP POP POP JUMP JUMPDEST PUSH0 PUSH2 0x473 PUSH2 0x46E DUP5 PUSH2 0x423 JUMP JUMPDEST PUSH2 0x409 JUMP JUMPDEST SWAP1 POP DUP3 DUP2 MSTORE PUSH1 0x20 DUP2 ADD DUP5 DUP5 DUP5 ADD GT ISZERO PUSH2 0x48F JUMPI PUSH2 0x48E PUSH2 0x3A7 JUMP JUMPDEST JUMPDEST PUSH2 0x49A DUP5 DUP3 DUP6 PUSH2 0x453 JUMP JUMPDEST POP SWAP4 SWAP3 POP POP POP JUMP JUMPDEST PUSH0 DUP3 PUSH1 0x1F DUP4 ADD SLT PUSH2 0x4B6 JUMPI PUSH2 0x4B5 PUSH2 0x3A3 JUMP JUMPDEST JUMPDEST DUP2 CALLDATALOAD PUSH2 0x4C6 DUP5 DUP3 PUSH1 0x20 DUP7 ADD PUSH2 0x461 JUMP JUMPDEST SWAP2 POP POP SWAP3 SWAP2 POP POP JUMP JUMPDEST PUSH0 DUP1 PUSH1 0x40 DUP4 DUP6 SUB SLT ISZERO PUSH2 0x4E5 JUMPI PUSH2 0x4E4 PUSH2 0x290 JUMP JUMPDEST JUMPDEST PUSH0 DUP4 ADD CALLDATALOAD PUSH8 0xFFFFFFFFFFFFFFFF DUP2 GT ISZERO PUSH2 0x502 JUMPI PUSH2 0x501 PUSH2 0x294 JUMP JUMPDEST JUMPDEST PUSH2 0x50E DUP6 DUP3 DUP7 ADD PUSH2 0x4A2 JUMP JUMPDEST SWAP3 POP POP PUSH1 0x20 PUSH2 0x51F DUP6 DUP3 DUP7 ADD PUSH2 0x2B7 JUMP JUMPDEST SWAP2 POP POP SWAP3 POP SWAP3 SWAP1 POP JUMP JUMPDEST PUSH0 PUSH1 0x20 DUP3 DUP5 SUB SLT ISZERO PUSH2 0x53E JUMPI PUSH2 0x53D PUSH2 0x290 JUMP JUMPDEST JUMPDEST PUSH0 DUP3 ADD CALLDATALOAD PUSH8 0xFFFFFFFFFFFFFFFF DUP2 GT ISZERO PUSH2 0x55B JUMPI PUSH2 0x55A PUSH2 0x294 JUMP JUMPDEST JUMPDEST PUSH2 0x567 DUP5 DUP3 DUP6 ADD PUSH2 0x4A2 JUMP JUMPDEST SWAP2 POP POP SWAP3 SWAP2 POP POP JUMP JUMPDEST PUSH0 PUSH1 0x20 DUP3 ADD SWAP1 POP PUSH2 0x583 PUSH0 DUP4 ADD DUP5 PUSH2 0x2F6 JUMP JUMPDEST SWAP3 SWAP2 POP POP JUMP JUMPDEST PUSH32 0x4E487B7100000000000000000000000000000000000000000000000000000000 PUSH0 MSTORE PUSH1 0x22 PUSH1 0x4 MSTORE PUSH1 0x24 PUSH0 REVERT JUMPDEST PUSH0 PUSH1 0x2 DUP3 DIV SWAP1 POP PUSH1 0x1 DUP3 AND DUP1 PUSH2 0x5CD JUMPI PUSH1 0x7F DUP3 AND SWAP2 POP JUMPDEST PUSH1 0x20 DUP3 LT DUP2 SUB PUSH2 0x5E0 JUMPI PUSH2 0x5DF PUSH2 0x589 JUMP JUMPDEST JUMPDEST POP SWAP2 SWAP1 POP JUMP JUMPDEST PUSH0 DUP2 SWAP1 POP DUP2 PUSH0 MSTORE PUSH1 0x20 PUSH0 KECCAK256 SWAP1 POP SWAP2 SWAP1 POP JUMP JUMPDEST PUSH0 PUSH1 0x20 PUSH1 0x1F DUP4 ADD DIV SWAP1 POP SWAP2 SWAP1 POP JUMP JUMPDEST PUSH0 DUP3 DUP3 SHL SWAP1 POP SWAP3 SWAP2 POP POP JUMP JUMPDEST PUSH0 PUSH1 0x8 DUP4 MUL PUSH2 0x642 PUSH32 0xFFFFFFFFFFFFFFFFFFFFFFFFFFFFFFFFFFFFFFFFFFFFFFFFFFFFFFFFFFFFFFFF DUP3 PUSH2 0x607 JUMP JUMPDEST PUSH2 0x64C DUP7 DUP4 PUSH2 0x607 JUMP JUMPDEST SWAP6 POP DUP1 NOT DUP5 AND SWAP4 POP DUP1 DUP7 AND DUP5 OR SWAP3 POP POP POP SWAP4 SWAP3 POP POP POP JUMP JUMPDEST PUSH0 DUP2 SWAP1 POP SWAP2 SWAP1 POP JUMP JUMPDEST PUSH0 PUSH2 0x687 PUSH2 0x682 PUSH2 0x67D DUP5 PUSH2 0x298 JUMP JUMPDEST PUSH2 0x664 JUMP JUMPDEST PUSH2 0x298 JUMP JUMPDEST SWAP1 POP SWAP2 SWAP1 POP JUMP JUMPDEST PUSH0 DUP2 SWAP1 POP SWAP2 SWAP1 POP JUMP JUMPDEST PUSH2 0x6A0 DUP4 PUSH2 0x66D JUMP JUMPDEST PUSH2 0x6B4 PUSH2 0x6AC DUP3 PUSH2 0x68E JUMP JUMPDEST DUP5 DUP5 SLOAD PUSH2 0x613 JUMP JUMPDEST DUP3 SSTORE POP POP POP POP JUMP JUMPDEST PUSH0 SWAP1 JUMP JUMPDEST PUSH2 0x6C8 PUSH2 0x6BC JUMP JUMPDEST PUSH2 0x6D3 DUP2 DUP5 DUP5 PUSH2 0x697 JUMP JUMPDEST POP POP POP JUMP JUMPDEST JUMPDEST DUP2 DUP2 LT ISZERO PUSH2 0x6F6 JUMPI PUSH2 0x6EB PUSH0 DUP3 PUSH2 0x6C0 JUMP JUMPDEST PUSH1 0x1 DUP2 ADD SWAP1 POP PUSH2 0x6D9 JUMP JUMPDEST POP POP JUMP JUMPDEST PUSH1 0x1F DUP3 GT ISZERO PUSH2 0x73B JUMPI PUSH2 0x70C DUP2 PUSH2 0x5E6 JUMP JUMPDEST PUSH2 0x715 DUP5 PUSH2 0x5F8 JUMP JUMPDEST DUP2 ADD PUSH1 0x20 DUP6 LT ISZERO PUSH2 0x724 JUMPI DUP2 SWAP1 POP JUMPDEST PUSH2 0x738 PUSH2 0x730 DUP6 PUSH2 0x5F8 JUMP JUMPDEST DUP4 ADD DUP3 PUSH2 0x6D8 JUMP JUMPDEST POP POP JUMPDEST POP POP POP JUMP JUMPDEST PUSH0 DUP3 DUP3 SHR SWAP1 POP SWAP3 SWAP2 POP POP JUMP JUMPDEST PUSH0 PUSH2 0x75B PUSH0 NOT DUP5 PUSH1 0x8 MUL PUSH2 0x740 JUMP JUMPDEST NOT DUP1 DUP4 AND SWAP2 POP POP SWAP3 SWAP2 POP POP JUMP JUMPDEST PUSH0 PUSH2 0x773 DUP4 DUP4 PUSH2 0x74C JUMP JUMPDEST SWAP2 POP DUP3 PUSH1 0x2 MUL DUP3 OR SWAP1 POP SWAP3 SWAP2 POP POP JUMP JUMPDEST PUSH2 0x78C DUP3 PUSH2 0x305 JUMP JUMPDEST PUSH8 0xFFFFFFFFFFFFFFFF DUP2 GT ISZERO PUSH2 0x7A5 JUMPI PUSH2 0x7A4 PUSH2 0x3AB JUMP JUMPDEST JUMPDEST PUSH2 0x7AF DUP3 SLOAD PUSH2 0x5B6 JUMP JUMPDEST PUSH2 0x7BA DUP3 DUP3 DUP6 PUSH2 0x6FA JUMP JUMPDEST PUSH0 PUSH1 0x20 SWAP1 POP PUSH1 0x1F DUP4 GT PUSH1 0x1 DUP2 EQ PUSH2 0x7EB JUMPI PUSH0 DUP5 ISZERO PUSH2 0x7D9 JUMPI DUP3 DUP8 ADD MLOAD SWAP1 POP JUMPDEST PUSH2 0x7E3 DUP6 DUP3 PUSH2 0x768 JUMP JUMPDEST DUP7 SSTORE POP PUSH2 0x84A JUMP JUMPDEST PUSH1 0x1F NOT DUP5 AND PUSH2 0x7F9 DUP7 PUSH2 0x5E6 JUMP JUMPDEST PUSH0 JUMPDEST DUP3 DUP2 LT ISZERO PUSH2 0x820 JUMPI DUP5 DUP10 ADD MLOAD DUP3 SSTORE PUSH1 0x1 DUP3 ADD SWAP2 POP PUSH1 0x20 DUP6 ADD SWAP5 POP PUSH1 0x20 DUP2 ADD SWAP1 POP PUSH2 0x7FB JUMP JUMPDEST DUP7 DUP4 LT ISZERO PUSH2 0x83D JUMPI DUP5 DUP10 ADD MLOAD PUSH2 0x839 PUSH1 0x1F DUP10 AND DUP3 PUSH2 0x74C JUMP JUMPDEST DUP4 SSTORE POP JUMPDEST PUSH1 0x1 PUSH1 0x2 DUP9 MUL ADD DUP9 SSTORE POP POP POP JUMPDEST POP POP POP POP POP POP JUMP JUMPDEST PUSH0 DUP2 SWAP1 POP SWAP3 SWAP2 POP POP JUMP JUMPDEST PUSH0 PUSH2 0x866 DUP3 PUSH2 0x305 JUMP JUMPDEST PUSH2 0x870 DUP2 DUP6 PUSH2 0x852 JUMP JUMPDEST SWAP4 POP PUSH2 0x880 DUP2 DUP6 PUSH1 0x20 DUP7 ADD PUSH2 0x31F JUMP JUMPDEST DUP1 DUP5 ADD SWAP2 POP POP SWAP3 SWAP2 POP POP JUMP JUMPDEST PUSH0 PUSH2 0x897 DUP3 DUP5 PUSH2 0x85C JUMP JUMPDEST SWAP2 POP DUP2 SWAP1 POP SWAP3 SWAP2 POP POP JUMP INVALID LOG2 PUSH5 0x6970667358 0x22 SLT KECCAK256 0xBB PUSH4 0x84FAD111 STOP 0x26 0xC8 0x2C SWAP1 0xAB KECCAK256 NUMBER ADDRESS SLT PUSH32 0xA6A86B9CD939EAE27B9C619A34D26B64736F6C634300081A0033A26469706673 PC 0x22 SLT KECCAK256 0x2F 0xAD 0xBC DUP11 SWAP10 LOG4 0xB1 PUSH32 0x133C81D26BB78F8CD0B9746814274A99B2351AAF9B5DAB0664736F6C63430008 BYTE STOP CALLER "
		},
		"gasEstimates": {
			"creation": {
				"codeDepositCost": "547800",
				"executionCost": "579",
				"totalCost": "548379"
			},
			"external": {
				"createSimpleContract()": "infinite",
				"simplestorage()": "infinite"
			}
		},
		"methodIdentifiers": {
			"createSimpleContract()": "0f7cfbaa",
			"simplestorage()": "2ae6e587"
		}
	},
	"abi": [
		{
			"inputs": [],
			"name": "createSimpleContract",
			"outputs": [],
			"stateMutability": "nonpayable",
			"type": "function"
		},
		{
			"inputs": [],
			"name": "simplestorage",
			"outputs": [
				{
					"internalType": "contract SimpleStorage",
					"name": "",
					"type": "address"
				}
			],
			"stateMutability": "view",
			"type": "function"
		}
	]
}